{
    "contractName": "Storage",
    "abi": [
        {
            "inputs": [
                {
                    "internalType": "address[]",
                    "name": "signers",
                    "type": "address[]"
                }
            ],
            "stateMutability": "payable",
            "type": "constructor"
        },
        {
            "stateMutability": "payable",
            "type": "fallback"
        },
        {
            "inputs": [
                {
                    "internalType": "uint256",
                    "name": "ind",
                    "type": "uint256"
                }
            ],
            "name": "approve",
            "outputs": [],
            "stateMutability": "payable",
            "type": "function"
        },
        {
            "inputs": [],
            "name": "getIndex",
            "outputs": [
                {
                    "internalType": "uint256",
                    "name": "",
                    "type": "uint256"
                }
            ],
            "stateMutability": "view",
            "type": "function"
        },
        {
            "inputs": [],
            "name": "newTrans",
            "outputs": [
                {
                    "internalType": "uint256",
                    "name": "approvedCounter",
                    "type": "uint256"
                },
                {
                    "internalType": "bool",
                    "name": "sent",
                    "type": "bool"
                },
                {
                    "internalType": "uint256",
                    "name": "eth",
                    "type": "uint256"
                },
                {
                    "internalType": "address payable",
                    "name": "to",
                    "type": "address"
                }
            ],
            "stateMutability": "view",
            "type": "function"
        },
        {
            "inputs": [],
            "name": "numberOfPending",
            "outputs": [
                {
                    "internalType": "uint256",
                    "name": "",
                    "type": "uint256"
                }
            ],
            "stateMutability": "view",
            "type": "function"
        },
        {
            "inputs": [
                {
                    "internalType": "uint256",
                    "name": "",
                    "type": "uint256"
                }
            ],
            "name": "pending",
            "outputs": [
                {
                    "internalType": "uint256",
                    "name": "approvedCounter",
                    "type": "uint256"
                },
                {
                    "internalType": "bool",
                    "name": "sent",
                    "type": "bool"
                },
                {
                    "internalType": "uint256",
                    "name": "eth",
                    "type": "uint256"
                },
                {
                    "internalType": "address payable",
                    "name": "to",
                    "type": "address"
                }
            ],
            "stateMutability": "view",
            "type": "function"
        },
        {
            "inputs": [
                {
                    "internalType": "address",
                    "name": "",
                    "type": "address"
                }
            ],
            "name": "people",
            "outputs": [
                {
                    "internalType": "uint256",
                    "name": "",
                    "type": "uint256"
                }
            ],
            "stateMutability": "view",
            "type": "function"
        },
        {
            "inputs": [],
            "name": "peopleNumber",
            "outputs": [
                {
                    "internalType": "uint256",
                    "name": "",
                    "type": "uint256"
                }
            ],
            "stateMutability": "view",
            "type": "function"
        },
        {
            "inputs": [
                {
                    "internalType": "uint256",
                    "name": "_eth",
                    "type": "uint256"
                },
                {
                    "internalType": "address payable",
                    "name": "_to",
                    "type": "address"
                }
            ],
            "name": "propose",
            "outputs": [
                {
                    "components": [
                        {
                            "internalType": "uint256",
                            "name": "approvedCounter",
                            "type": "uint256"
                        },
                        {
                            "internalType": "bool[]",
                            "name": "approved",
                            "type": "bool[]"
                        },
                        {
                            "internalType": "bool",
                            "name": "sent",
                            "type": "bool"
                        },
                        {
                            "internalType": "uint256",
                            "name": "eth",
                            "type": "uint256"
                        },
                        {
                            "internalType": "address payable",
                            "name": "to",
                            "type": "address"
                        }
                    ],
                    "internalType": "struct Storage.trans",
                    "name": "",
                    "type": "tuple"
                }
            ],
            "stateMutability": "nonpayable",
            "type": "function"
        },
        {
            "inputs": [],
            "name": "send",
            "outputs": [],
            "stateMutability": "payable",
            "type": "function"
        },
        {
            "inputs": [],
            "name": "showPending",
            "outputs": [
                {
                    "internalType": "uint256[]",
                    "name": "",
                    "type": "uint256[]"
                }
            ],
            "stateMutability": "view",
            "type": "function"
        },
        {
            "inputs": [
                {
                    "internalType": "uint256",
                    "name": "",
                    "type": "uint256"
                }
            ],
            "name": "soub",
            "outputs": [
                {
                    "internalType": "bool",
                    "name": "",
                    "type": "bool"
                }
            ],
            "stateMutability": "view",
            "type": "function"
        }
    ],
    "bytecode": "6000600255600560808181526101406040529060a080803681375050815162000030926004925060200190620001dc565b506040518060a00160405280600081526020016004805480602002602001604051908101604052809291908181526020018280548015620000b157602002820191906000526020600020906000905b825461010083900a900460ff1615158152602060019283018181049485019490930390920291018084116200007f5790505b50505091835250506000602080830182905260408301829052606090920152815160059081558282015180519192620000f19260069290910190620001dc565b5060408281015160028301805460ff191691151591909117905560608301516003830155608090920151600490910180546001600160a01b0319166001600160a01b039092169190911790555162001365388190039081908339810160408190526200015d91620002d2565b60005b8151811015620001d15762000177816001620003ba565b6000808484815181106200018f576200018f620003d6565b60200260200101516001600160a01b03166001600160a01b03168152602001908152602001600020819055508080620001c890620003ec565b91505062000160565b505160035562000408565b82805482825590600052602060002090601f01602090048101928215620002765791602002820160005b838211156200024557835183826101000a81548160ff021916908315150217905550926020019260010160208160000104928301926001030262000206565b8015620002745782816101000a81549060ff021916905560010160208160000104928301926001030262000245565b505b506200028492915062000288565b5090565b5b8082111562000284576000815560010162000289565b634e487b7160e01b600052604160045260246000fd5b80516001600160a01b0381168114620002cd57600080fd5b919050565b60006020808385031215620002e657600080fd5b82516001600160401b0380821115620002fe57600080fd5b818501915085601f8301126200031357600080fd5b8151818111156200032857620003286200029f565b8060051b604051601f19603f830116810181811085821117156200035057620003506200029f565b6040529182528482019250838101850191888311156200036f57600080fd5b938501935b8285101562000398576200038885620002b5565b8452938501939285019262000374565b98975050505050505050565b634e487b7160e01b600052601160045260246000fd5b80820180821115620003d057620003d0620003a4565b92915050565b634e487b7160e01b600052603260045260246000fd5b600060018201620004015762000401620003a4565b5060010190565b610f4d80620004186000396000f3fe6080604052600436106100995760003560e01c806381045ead1161006157806381045ead146101a6578063af6e6238146101c8578063b46300ec14610099578063b759f954146101e8578063c7e506ef146101fb578063d598b6b61461021157005b806307de97351461009b5780630aa0fac9146100db57806319049082146100f15780632f3e2e02146101215780635766b1a514610179575b005b3480156100a757600080fd5b506100c86100b6366004610cf7565b60006020819052908152604090205481565b6040519081526020015b60405180910390f35b3480156100e757600080fd5b506100c860035481565b3480156100fd57600080fd5b5061011161010c366004610d1b565b610233565b60405190151581526020016100d2565b34801561012d57600080fd5b50600554600754600854600954610150939260ff1691906001600160a01b031684565b604080519485529215156020850152918301526001600160a01b031660608201526080016100d2565b34801561018557600080fd5b50610199610194366004610d34565b610267565b6040516100d29190610d64565b3480156101b257600080fd5b50336000908152602081905260409020546100c8565b3480156101d457600080fd5b506101506101e3366004610d1b565b61067f565b6100996101f6366004610d1b565b6106c5565b34801561020757600080fd5b506100c860025481565b34801561021d57600080fd5b506102266109f8565b6040516100d29190610df4565b6004818154811061024357600080fd5b9060005260206000209060209182820401919006915054906101000a900460ff1681565b6102a46040518060a0016040528060008152602001606081526020016000151581526020016000815260200160006001600160a01b031681525090565b3360009081526020819052604081205490036103005760405162461bcd60e51b81526020600482015260166024820152756e6f7420616c6c6f77656420746f2070726f706f736560501b60448201526064015b60405180910390fd5b6001600260008282546103139190610e4e565b9091555050600180548082018255600091909152600580549181027fb10e2d527612073b26eecdfd717e6a320cf44b4afac2b0732d9fcbe2b7fa0cf6810192835560068054929392610388927fb10e2d527612073b26eecdfd717e6a320cf44b4afac2b0732d9fcbe2b7fa0cf7019190610c6f565b50600282810154908201805460ff909216151560ff1990921691909117905560038083015490820155600491820154910180546001600160a01b0319166001600160a01b03909216919091179055600180546103e5908290610e61565b815481106103f5576103f5610e74565b6000918252602080832060016005909302018201805480840182559084529281902090830401805460ff601f9094166101000a9384021916909217909155805460029190610444908290610e61565b8154811061045457610454610e74565b9060005260206000209060050201600001819055506104f6604051806040016040528060048152602001636865726560e01b815250600254600180808054905061049e9190610e61565b815481106104ae576104ae610e74565b90600052602060002090600502016001016000815481106104d1576104d1610e74565b90600052602060002090602091828204019190069054906101000a900460ff16610ae9565b600180548190610507908290610e61565b8154811061051757610517610e74565b6000918252602080832033845290839052604090922054600160059092029092018101916105459190610e61565b8154811061055557610555610e74565b90600052602060002090602091828204019190066101000a81548160ff021916908315150217905550610597600180805490506105929190610e61565b610b35565b600060016000815481106105ad576105ad610e74565b90600052602060002090600502016040518060a0016040529081600082015481526020016001820180548060200260200160405190810160405280929190818152602001828054801561063f57602002820191906000526020600020906000905b825461010083900a900460ff16151581526020600192830181810494850194909303909202910180841161060e5790505b5050509183525050600282015460ff1615156020820152600382015460408201526004909101546001600160a01b03166060909101529150505b92915050565b6001818154811061068f57600080fd5b6000918252602090912060059091020180546002820154600383015460049093015491935060ff1691906001600160a01b031684565b33600090815260208190526040812054900361071c5760405162461bcd60e51b81526020600482015260166024820152756e6f7420616c6c6f77656420746f20617070726f766560501b60448201526064016102f7565b60015481106107785760405162461bcd60e51b815260206004820152602260248201527f7468657265206973206e6f207472616e73616374696f6e207769746820696e646044820152610caf60f31b60648201526084016102f7565b6001818154811061078b5761078b610e74565b600091825260209091206002600590920201015460ff16156107ef5760405162461bcd60e51b815260206004820152601b60248201527f7472616e73616374696f6e20697320616c72656164792073656e74000000000060448201526064016102f7565b6001818154811061080257610802610e74565b6000918252602080832033845290839052604090922054600160059092029092018101916108309190610e61565b8154811061084057610840610e74565b60009182526020918290209181049091015460ff601f9092166101000a900416156108bf5760405162461bcd60e51b815260206004820152602960248201527f7369676e657220616c726561647920616772656564206f6e207468697320747260448201526830b739b0b1ba34b7b760b91b60648201526084016102f7565b600181815481106108d2576108d2610e74565b6000918252602080832033845290839052604090922054600160059092029092018101916109009190610e61565b8154811061091057610910610e74565b60009182526020808320908204015460ff601f9092166101000a900416151590036109ec57600180828154811061094957610949610e74565b906000526020600020906005020160000160008282546109699190610e4e565b92505081905550600180828154811061098457610984610e74565b6000918252602080832033845290839052604090922054600160059092029092018101916109b29190610e61565b815481106109c2576109c2610e74565b90600052602060002090602091828204019190066101000a81548160ff0219169083151502179055505b6109f581610b35565b50565b6060600060025467ffffffffffffffff811115610a1757610a17610e8a565b604051908082528060200260200182016040528015610a40578160200160208202803683370190505b5090506000805b600154811015610ae15760018181548110610a6457610a64610e74565b600091825260209091206002600590920201015460ff16610acf5760018181548110610a9257610a92610e74565b906000526020600020906005020160030154838381518110610ab657610ab6610e74565b6020908102919091010152610acc600183610e4e565b91505b80610ad981610ea0565b915050610a47565b509092915050565b610b30838383604051602401610b0193929190610eb9565b60408051601f198184030181529190526020810180516001600160e01b031663ca7733b160e01b179052610c4e565b505050565b60035460018281548110610b4b57610b4b610e74565b906000526020600020906005020160000154036109f55760018181548110610b7557610b75610e74565b906000526020600020906005020160040160009054906101000a90046001600160a01b03166001600160a01b03166108fc60018381548110610bb957610bb9610e74565b9060005260206000209060050201600301549081150290604051600060405180830381858888f19350505050158015610bf6573d6000803e3d6000fd5b506001808281548110610c0b57610c0b610e74565b906000526020600020906005020160020160006101000a81548160ff021916908315150217905550600160026000828254610c469190610e61565b909155505050565b80516a636f6e736f6c652e6c6f67602083016000808483855afa5050505050565b82805482825590600052602060002090601f01602090048101928215610cbd57600052602060002091601f016020900482015b82811115610cbd578254825591600101919060010190610ca2565b50610cc9929150610ccd565b5090565b5b80821115610cc95760008155600101610cce565b6001600160a01b03811681146109f557600080fd5b600060208284031215610d0957600080fd5b8135610d1481610ce2565b9392505050565b600060208284031215610d2d57600080fd5b5035919050565b60008060408385031215610d4757600080fd5b823591506020830135610d5981610ce2565b809150509250929050565b60208082528251828201528281015160a06040840152805160c0840181905260009291820190839060e08601905b80831015610db457835115158252928401926001929092019190840190610d92565b506040870151801515606088015293506060870151608087015260808701519350610dea60a08701856001600160a01b03169052565b9695505050505050565b6020808252825182820181905260009190848201906040850190845b81811015610e2c57835183529284019291840191600101610e10565b50909695505050505050565b634e487b7160e01b600052601160045260246000fd5b8082018082111561067957610679610e38565b8181038181111561067957610679610e38565b634e487b7160e01b600052603260045260246000fd5b634e487b7160e01b600052604160045260246000fd5b600060018201610eb257610eb2610e38565b5060010190565b606081526000845180606084015260005b81811015610ee75760208188018101516080868401015201610eca565b506000608082850101526080601f19601f830116840101915050836020830152821515604083015294935050505056fea2646970667358221220bf8517c9f92dd593fd08a8efeeba73ead094320720dee2f7026818fdc34ec9ce64736f6c63430008100033",
    "sourcePath": "/home/ali/projects/hardhat-example/contracts/Storage.sol",
    "compiler": {
        "name": "solc",
        "version": "0.8.16+commit.07a7930e"
    },
    "functionHashes": {
        "approve(uint256)": "b759f954",
        "getIndex()": "81045ead",
        "newTrans()": "2f3e2e02",
        "numberOfPending()": "c7e506ef",
        "pending(uint256)": "af6e6238",
        "people(address)": "07de9735",
        "peopleNumber()": "0aa0fac9",
        "propose(uint256,address)": "5766b1a5",
        "send()": "b46300ec",
        "showPending()": "d598b6b6",
        "soub(uint256)": "19049082"
    },
    "gasEstimates": {
        "creation": {
            "codeDepositCost": "783400",
            "executionCost": "infinite",
            "totalCost": "infinite"
        },
        "external": {
            "": "185",
            "approve(uint256)": "infinite",
            "getIndex()": "2352",
            "newTrans()": "8782",
            "numberOfPending()": "2372",
            "pending(uint256)": "11052",
            "people(address)": "2506",
            "peopleNumber()": "2307",
            "propose(uint256,address)": "infinite",
            "send()": "140",
            "showPending()": "infinite",
            "soub(uint256)": "6281"
        },
        "internal": {
            "check(uint256)": "infinite"
        }
    }
}